:100000000C9434000C9446000C9446000C9446006A
:100010000C9446000C9446000C9446000C94460048
:100020000C9446000C9446000C9446000C94460038
:100030000C9446000C9446000C9446000C94460028
:100040000C9446000C9446000C9446000C94460018
:100050000C9446000C9446000C9446000C94460008
:100060000C9446000C94460011241FBECFEFD8E03C
:10007000DEBFCDBF21E0A0E0B1E001C01D92A03005
:10008000B207E1F70E9448000C9473000C94000042
:100090008FEF84B981E080937E0080E480937C00C0
:1000A000EAE7F0E080818768808310927B008BE133
:1000B0008093810082E88093800084EC99E09093A3
:1000C000870080938600C8E7D0E0A8E8B0E0808190
:1000D0008064808380818881998196958795119627
:0A00E0009C938E93F4CFF894FFCFA9
:00000001FF
