:100000000C9434000C9451000C9451000C94510049
:100010000C9451000C9451000C9451000C9451001C
:100020000C9451000C9451000C9451000C9451000C
:100030000C9451000C9451000C9451000C945100FC
:100040000C9451000C9451000C9451000C945100EC
:100050000C9451000C9474000C9451000C945100B9
:100060000C9451000C94510011241FBECFEFD8E026
:10007000DEBFCDBF11E0A0E0B1E0ECE9F6E002C0E8
:1000800005900D92A83CB107D9F721E0A8ECB1E0AA
:1000900001C01D92A33DB207E1F70E9406010C9436
:1000A0004C030C940000ECE7F0E0808180648083D6
:1000B0008081806280838BEE80937A000895109215
:1000C000C50080E18093C400E0ECF0E080818260B4
:1000D0008083E1ECF0E0808188608083E2ECF0E0F6
:1000E00080818660808308951F920F920FB60F92D1
:1000F00011242F933F934F935F936F937F938F932D
:100100009F93AF93BF93EF93FF93CF93DF93CDB7BD
:10011000DEB72597DEBFCDBF6091790070E0660F36
:10012000771F072E000C880B990B0E941E0226E6F3
:1001300036E646EE5FE30E94AA0220E030E040E0AF
:1001400052E40E9481010E94ED016093C8018091F8
:10015000C8014AE0BE016F5F7F4F90E00E94170325
:10016000FE01319680E090E02191DC01A753BE4F63
:100170002C93019685309105B9F70F900F900F9051
:100180000F900F90DF91CF91FF91EF91BF91AF91C1
:100190009F918F917F916F915F914F913F912F919F
:1001A0000F900FBE0F901F901895CF93DF9300D044
:1001B000CDB7DEB7AC011A82E0ECF0E066EC70E09F
:1001C00019C08A818F5F8A83198299818A819817E1
:1001D00088F4908195FFFDCF9981DA01A90FB11DB7
:1001E0009C91DB019C9399819F5F998329819A81DE
:1001F000291778F38A81DA01A80FB11D8C9181113A
:10020000E0CF0F900F90DF91CF9108950E9453009F
:100210000E945F0078942FEF83ED90E3215080409F
:100220009040E1F700C0000081E191E00E94D5001C
:100230002FEF83ED90E3215080409040E1F700C024
:10024000000082EC91E00E94D5002FEF83ED90E357
:10025000215080409040E1F700C0000084EB91E025
:100260000E94D5002FEF83ED90E321508040904015
:10027000E1F700C000008AE891E00E94D5002FEF6E
:1002800083ED90E3215080409040E1F700C00000F2
:1002900083E491E00E94D5002FEF83ED90E321509D
:1002A00080409040E1F700C0000081E691E00E94AC
:1002B000D5002FEF83ED90E3215080409040E1F78F
:1002C00000C0000081E591E00E94D5002FEF83ED92
:1002D00090E3215080409040E1F700C000008AE1A7
:1002E00091E00E94D50089EC91E00E94D50080E069
:1002F00091E00E94D5008EE091E00E94D500CCCF25
:100300005058BB27AA270E9498010C9470020E94A3
:10031000620238F00E94690220F039F49F3F19F41C
:1003200026F40C945F020EF4E095E7FB0C9459025E
:10033000E92F0E94810258F3BA17620773078407F6
:10034000950720F079F4A6F50C94A3020EF4E0953D
:100350000B2EBA2FA02D0B01B90190010C01CA017F
:10036000A0011124FF27591B99F0593F50F4503E2A
:1003700068F11A16F040A22F232F342F4427585F1C
:10038000F3CF469537952795A795F0405395C9F734
:100390007EF41F16BA0B620B730B840BBAF09150EC
:1003A000A1F0FF0FBB1F661F771F881FC2F70EC08B
:1003B000BA0F621F731F841F48F48795779567955E
:1003C000B795F7959E3F08F0B0CF9395880F08F04A
:1003D0009927EE0F9795879508950E94890288F0D6
:1003E0009F5798F0B92F9927B751B0F0E1F0660FF9
:1003F000771F881F991F1AF0BA95C9F714C0B1303A
:1004000091F00E94A302B1E008950C94A302672F1B
:10041000782F8827B85F39F0B93FCCF38695779568
:100420006795B395D9F73EF4909580957095619551
:100430007F4F8F4F9F4F0895E89409C097FB3EF47C
:1004400090958095709561957F4F8F4F9F4F992321
:10045000A9F0F92F96E9BB279395F695879577959F
:100460006795B795F111F8CFFAF4BB0F11F460FF5F
:100470001BC06F5F7F4F8F4F9F4F16C0882311F0B7
:1004800096E911C0772321F09EE8872F762F05C0CB
:10049000662371F096E8862F70E060E02AF09A9566
:1004A000660F771F881FDAF7880F9695879597F95B
:1004B000089597F99F6780E870E060E008959FEFE6
:1004C00080EC089500240A941616170618060906EB
:1004D000089500240A9412161306140605060895BA
:1004E000092E0394000C11F4882352F0BB0F40F442
:1004F000BF2B11F460FF04C06F5F7F4F8F4F9F4F82
:10050000089557FD9058440F551F59F05F3F71F003
:100510004795880F97FB991F61F09F3F79F087956A
:100520000895121613061406551FF2CF4695F1DFF3
:1005300008C0161617061806991FF1CF8695710583
:10054000610508940895E894BB2766277727CB01B7
:1005500097F908950E94BD020C9470020E946202F5
:1005600038F00E94690220F0952311F00C94590292
:100570000C945F0211240C94A4020E94810270F377
:10058000959FC1F3950F50E0551F629FF001729F38
:10059000BB27F00DB11D639FAA27F00DB11DAA1F47
:1005A000649F6627B00DA11D661F829F2227B00D94
:1005B000A11D621F739FB00DA11D621F839FA00D1F
:1005C000611D221F749F3327A00D611D231F849F6F
:1005D000600D211D822F762F6A2F11249F575040C6
:1005E0009AF0F1F088234AF0EE0FFF1FBB1F661F41
:1005F000771F881F91505040A9F79E3F510580F00A
:100600000C9459020C94A4025F3FE4F3983ED4F397
:10061000869577956795B795F795E7959F5FC1F7AD
:10062000FE2B880F911D9695879597F90895BB2706
:100630004A3031F4992322F4BDE2909581959F4F81
:100640000C942303BB27FB015527AA27880F991F6A
:10065000AA1FA41710F0A41B83955051B9F7A05DF1
:10066000AA3308F0A95DA193009779F7B111B1936E
:100670001192CB010C943C03DC01FC01672F7191BA
:100680007723E1F7329704C07C916D937083629178
:0C069000AE17BF07C8F30895F894FFCF21
:10069C0041542B434950434C4F53450D0A000D0A0E
:1006AC000041542B5253540D0A00474554202F75CA
:1006BC0070646174653F6B65793D5A4447314250B3
:1006CC0039343247394E56455744266669656C6451
:1006DC00313D0041542B4349504D55583D300D0A86
:1006EC000041542B43495053454E443D35300D0A7F
:1006FC000041542B43495053544152543D225443CE
:10070C0050222C223138342E3130362E3135332EC6
:10071C00313439222C38300D0A0041542B43574ABE
:10072C0041503D224D6F6E61726368732050616C55
:10073C00616365222C22717561636B717561636BEA
:10074C00220D0A0041542B43574D4F44453D330D68
:08075C000A0041540D0A0000DF
:00000001FF
