:100000000C9434000C9451000C9451000C94510049
:100010000C9451000C9451000C9451000C9451001C
:100020000C9451000C9451000C9451000C9451000C
:100030000C9451000C9451000C9451000C945100FC
:100040000C9451000C9451000C9451000C945100EC
:100050000C9451000C9451000C9451000C945100DC
:100060000C9451000C94510011241FBECFEFD8E026
:10007000DEBFCDBF11E0A0E0B1E0E0EEF6E002C0EF
:1000800005900D92AA3CB107D9F721E0AAECB1E0A6
:1000900001C01D92AE3EB207E1F70E949A020C9495
:1000A0006E030C94000088E48093B8000895ECEB94
:1000B000F0E0108294EA908390819923ECF790917C
:1000C000B900987F9830A1F48093BB0084E88093B6
:1000D000BC00ECEBF0E080818823ECF79091B90054
:1000E000987F983139F081E0903429F480E00895C8
:1000F00081E0089580E008958093BB0084E88093B8
:10010000BC00ECEBF0E080818823ECF79091B90023
:10011000987F81E0983209F480E0089584EC809320
:10012000BC00ECEBF0E080818823ECF78091BB0011
:10013000089584E88093BC00ECEBF0E08081882394
:10014000ECF78091BB000895CF92DF92FF920F935E
:100150001F93CF93DF93C62F6A0189010E94570036
:10016000F82E811115C08C2F0E947C0001151105FD
:1001700059F0E6010C0D1D1D89910E947C00811132
:100180000AC0C017D107C1F784E98093BC0005C03D
:10019000FF24F39402C0FF24F3948F2DDF91CF91BD
:1001A0001F910F91FF90DF90CF900895AF92BF9273
:1001B000DF92EF92FF920F931F93CF93DF93182F4D
:1001C000062F5A01E9010E945700811122C0802F99
:1001D0000E947C00812F81600E945700D82E8111DF
:1001E0001BC08E010150110951F0E5017501E00EAF
:1001F000F11E0E948E008993EC16FD06D1F7E501F1
:10020000C00FD11F0E949900888384E98093BC00AD
:1002100005C0DD24D39402C0DD24D3948D2DDF915D
:10022000CF911F910F91FF90EF90DF90BF90AF9013
:100230000895CF93DF931F92CDB7DEB721E030E072
:10024000AE014F5F5F4F62E982E70E94D60089816D
:100250008B3A09F0FFCF8BE1898321E030E0AE01DA
:100260004F5F5F4F60E882E70E94A4008BED8983B7
:1002700021E030E0AE014F5F5F4F61E882E70E940E
:10028000A40086EF898321E030E0AE014F5F5F4F2D
:1002900063E882E70E94A40087E8898321E030E0D8
:1002A000AE014F5F5F4F6EE882E70E94A4001982A3
:1002B00021E030E0AE014F5F5F4F6DE982E70E94C1
:1002C000A400198221E030E0AE014F5F5F4F6EE97C
:1002D00082E70E94A40080E6898321E030E0AE013D
:1002E0004F5F5F4F6DE882E70E94A40081E1898340
:1002F00021E030E0AE014F5F5F4F6CE882E70E9483
:10030000A40081E0898321E030E0AE014F5F5F4FC0
:1003100060E982E70E94A400198221E030E0AE018A
:100320004F5F5F4F6FE982E70E94A4000F90DF915B
:10033000CF910895CF92DF92EF92FF920F931F9388
:10034000CF93DF93CDB7DEB760970FB6F894DEBFDB
:100350000FBECDBF21E030E0AE014F5F5F4F67E9D8
:1003600082E70E94D60021E030E0AE014E5F5F4F91
:1003700066E982E70E94D60021E030E0AE014D5FE1
:100380005F4F69E982E70E94D60021E030E0AE01CC
:100390004C5F5F4F68E982E70E94D60021E030E0C1
:1003A000AE014B5F5F4F6BE982E70E94D60021E010
:1003B00030E0AE014A5F5F4F6AE982E70E94D600F3
:1003C000498150E0542F44278A81482B5093E10102
:1003D0004093E0012B8130E0322F22278C81282BA3
:1003E0003093DF012093DE018D8190E0982F8827E4
:1003F0006E81862B9093E3018093E2014F3F51057C
:1004000039F030F04FEF50E05093E1014093E001BC
:100410002F3F310539F030F02FEF30E03093DF011E
:100420002093DE018F3F910539F030F08FEF90E09F
:100430009093E3018093E2018E01095F1F4F4AE030
:10044000B8018091E0019091E1010E9439037801A7
:100450006E0181E1C80ED11CF801DF01AE19BF09A0
:100460008191AC51BE4F8C93EC15FD05B1F74AE07C
:10047000BE01695F7F4F8091DE019091DF010E9494
:100480003903F701DF01AE19BF098191A653BE4FB1
:100490008C93EC15FD05B1F74AE0BE01695F7F4F13
:1004A0008091E2019091E3010E943903F701DF019D
:1004B000AE19BF098191AC52BE4F8C93EC15FD056E
:1004C000B1F760960FB6F894DEBF0FBECDBFDF91D7
:1004D000CF911F910F91FF90EF90DF90CF900895F3
:1004E0001092C50080E18093C400E0ECF0E08081D0
:1004F00082608083E1ECF0E0808188608083E2ECC0
:10050000F0E08081866080830895CF93DF93DC01E3
:100510008C91882361F0E0ECF0E0C6ECD0E09081B3
:1005200095FFFDCF8D9188838C918111F8CFDF915C
:10053000CF9108950E94530060E072EC81E090E05A
:100540000E9470020E9419012FEF83ED90E3215069
:1005500080409040E1F700C0000082EB91E00E94F3
:1005600085022FEF83ED90E3215080409040E1F72A
:1005700000C0000080E091E00E9485022FEF83ED33
:1005800090E3215080409040E1F700C0000082EBF2
:1005900091E00E9485022FEF83ED90E3215080408F
:1005A0009040E1F700C0000084EA91E00E948502DB
:1005B0002FEF83ED90E3215080409040E1F700C0A1
:1005C00000008AE791E00E9485022FEF83ED90E31F
:1005D000215080409040E1F700C0000082E391E0AC
:1005E0000E9485022FEF83ED90E3215080409040E0
:1005F000E1F700C0000081E591E00E9485022FEF45
:1006000083ED90E3215080409040E1F700C000006E
:1006100080E491E00E9485022FEF83ED90E321506A
:1006200080409040E1F700C000000E949A0189E0FC
:1006300091E00E94850284EE91E00E94850287EBA2
:1006400091E00E9485028AEC91E00E94850280EC94
:1006500091E00E94850284ED91E00E9485022FEFD7
:1006600083ED90E3215080409040E1F700C000000E
:10067000ACCFBB274A3031F4992322F4BDE29095E8
:1006800081959F4F0C944503BB27FB015527AA2753
:10069000880F991FAA1FA41710F0A41B839550510F
:1006A000B9F7A05DAA3308F0A95DA193009779F787
:1006B000B111B1931192CB010C945E03DC01FC01EA
:1006C000672F71917723E1F7329704C07C916D9386
:1006D00070836291AE17BF07C8F30895F894FFCFF7
:1006E00041542B5253540D0A00474554202F757026
:1006F000646174653F6B65793D5A444731425039B6
:10070000343247394E56455744266669656C643124
:100710003D0041542B4349504D55583D300D0A0082
:1007200041542B43495053454E443D3130340D0A1A
:100730000041542B43495053544152543D22544399
:1007400050222C223138342E3130362E3135332E92
:10075000313439222C38300D0A0041542B43574A8A
:1007600041503D224D6F6E61726368732050616C21
:10077000616365222C22717561636B717561636BB6
:10078000220D0A0041542B43574D4F44453D330D34
:100790000A0041540D0A00266669656C64323D000A
:0A07A000266669656C64333D0000B5
:00000001FF
