:100000000C9434000C943E000C943E000C943E0082
:100010000C943E000C943E000C943E000C943E0068
:100020000C943E000C943E000C943E000C943E0058
:100030000C943E000C943E000C943E000C943E0048
:100040000C943E000C943E000C943E000C943E0038
:100050000C943E000C943E000C943E000C943E0028
:100060000C943E000C943E0011241FBECFEFD8E04C
:10007000DEBFCDBF0E9440000C9471000C940000C4
:100080008FEF84B98DE0809381008CE89AE19093A2
:1000900089008093880081E090E014E324E0E8E8A0
:1000A000F0E0CCE8DAE1B0E0A0E058E062EB71E12A
:1000B00041E030E0B29BFECF009749F485B185273F
:1000C00085B926BB71836083842F932FF3CF813052
:1000D000910581F715B926BBD183C0838B2F9A2F49
:0600E000E9CFF894FFCF08
:00000001FF
