:100000000C9434000C943E000C943E000C943E0082
:100010000C9456000C943E000C943E000C943E0050
:100020000C943E000C943E000C943E000C943E0058
:100030000C943E000C943E000C943E000C943E0048
:100040000C943E000C943E000C943E000C943E0038
:100050000C943E000C943E000C943E000C943E0028
:100060000C943E000C943E0011241FBECFEFD8E04C
:10007000DEBFCDBF0E9440000C9473000C940000C2
:1000800084B1846284B92D9A2A9A87B117B888B14D
:100090008E6088B9ECE6F0E080818E608083E8E6CF
:1000A000F0E08081826080837894FFCF1F920F926E
:1000B0000FB60F9211242F938F939F9395B184E0E5
:1000C000892785B92FEF88E09DE32150804090403B
:1000D000E1F700C000009F918F912F910F900FBE0C
:0A00E0000F901F901895F894FFCFC1
:00000001FF
