S01C00004350453330315F444132435F7461736B325F70322E73726563FE
S11300000C9434000C9446000C9446000C94460066
S11300100C9446000C9446000C9446000C94460044
S11300200C9446000C9446000C9446000C94460034
S11300300C9446000C9446000C9446000C94460024
S11300400C946A000C9446000C9446000C944600F0
S11300500C9446000C9446000C9446000C94460004
S11300600C9446000C94460011241FBECFEFD8E038
S1130070DEBFCDBF21E0A0E0B1E001C01D92A230FF
S1130080B207E1F70E9448000C9496000C9400001B
S113009084B1846284B985B1846285B987B117B8A3
S11300A088B188B985B5856085BDEEE6F0E08081CC
S11300B081608083789481E090E0329905C09093C8
S11300C0010180930001F9CF2A9A10920101109244
S11300D00001F3CF1F920F920FB60F9211248F934A
S11300E09F9380910001909101010197C1F42A9896
S11300F016BC80E090E00BC0A89904C08E34910532
S1130100DCF308C00196A89A8E34910519F0A89BD7
S1130110F3CFF8CF2A9A10920101109200019F9117
S11301208F910F900FBE0F901F901895F894FFCFEA
S9030000FC
