:100000000C9434000C9446000C9446000C9446006A
:100010000C9472000C9446000C9446000C9446001C
:100020000C9446000C9446000C9446000C94460038
:100030000C9446000C9446000C9446000C94460028
:100040000C9446000C9446000C9446000C94460018
:100050000C9446000C9446000C9446000C94460008
:100060000C9446000C94460011241FBECFEFD8E03C
:10007000DEBFCDBF21E0A0E0B1E001C01D92A43001
:10008000B207E1F70E9448000C94E3000C940000D2
:1000900084B1826284B917B815B8419AE0E8F0E0FB
:1000A0008081826A8083E1E8F0E080818A618083D8
:1000B0008FE097E2909387008093860082E08093A0
:1000C000680080936C0080E480937C00EAE7F0E0B5
:1000D00080818768808310927B0081E080937E001E
:1000E0007894FFCF1F920F920FB60F9211242F9387
:1000F0003F938F939F93AF93BF93CF93DF93EF93F0
:10010000FF932FEF89E698E1215080409040E1F77E
:1001100000C00000319B36C047C080910001909123
:1001200001018130910531F585B1826285B9808107
:1001300080648083808184FD2BC088819981937045
:100140009093030180930201809102019091030139
:100150009C01220F331F880F991F880F991F880F4A
:10016000991F820F931F11969C938E93808184FF19
:10017000E4CF0EC0892B61F411961C921E9229982F
:100180002D9806C0A8E8B0E0EAE7F0E0C8E7D0E0C4
:10019000319BC3CF809100019091010121E0822722
:1001A0009093010180930001FF91EF91DF91CF9136
:1001B000BF91AF919F918F913F912F910F900FBE63
:0A01C0000F901F901895F894FFCFE0
:00000001FF
