S01A00004350453330315F4441325F435F7461736B312E73726563A3
S11300000C9434000C943E000C943E000C943E007E
S11300100C943E000C943E000C943E000C943E0064
S11300200C943E000C943E000C943E000C943E0054
S11300300C943E000C943E000C943E000C943E0044
S11300400C943E000C943E000C943E000C943E0034
S11300500C943E000C943E000C943E000C943E0024
S11300600C943E000C943E0011241FBECFEFD8E048
S1130070DEBFCDBF0E9440000C946C000C940000C5
S1130080229A8DE0809381008CE89AE19093890014
S11300908093880081E090E024E0E8E8F0E0CCE898
S11300A0DAE1A0E050E062EB71E141E030E0B29BC4
S11300B0FECF009739F42A9826BB71836083842F7E
S11300C0932FF5CF8130910591F72A9A26BBD183DE
S10F00D0C0838A2F952FEBCFF894FFCF4C
S9030000FC
