S01C00004350453330315F444132435F7461736B335F70322E73726563FD
S11300000C9434000C9451000C9451000C94510045
S11300100C9451000C9451000C9451000C94510018
S11300200C9451000C9451000C9451000C94510008
S11300300C9451000C9451000C947B000C945100CE
S11300400C9451000C9451000C9451000C945100E8
S11300500C9451000C9451000C9451000C945100D8
S11300600C9451000C94510011241FBECFEFD8E022
S1130070DEBFCDBF11E0A0E0B1E0E8E5F1E002C0F1
S113008005900D92A230B107D9F721E0A2E0B1E0CA
S113009001C01D92A630B207E1F70E9453000C94F0
S11300A0AA000C94000084B1846284B985B184628E
S11300B085B987B117B888B188B984B5826084BD21
S11300C085B5856085BDEEE6F0E080818260808341
S11300D08091000187BD789481E090E0329905C059
S11300E09093050180930401F9CF2A9A1092050197
S11300F010920401F3CF1F920F920FB60F921124A6
S11301008F939F9380910401909105010197D9F4F5
S113011010920501109204012A9816BC08C0A99BEC
S11301200AC001969093030180930201A99A8091D9
S11301300201909103018E3491058CF31092030116
S1130140109202012A9A9F918F910F900FBE0F90E7
S10B01501F901895F894FFCFED
S1050158FF00A2
S9030000FC
