S01900004350453330315F444134425F7461736B312E7372656302
S11300000C9434000C9446000C9446000C94460066
S11300100C9446000C9446000C9446000C94460044
S11300200C9446000C9446000C9446000C94460034
S11300300C9446000C9446000C9446000C94460024
S11300400C9446000C9446000C9446000C94460014
S11300500C9446000C9446000C9446000C94460004
S11300600C9446000C94460011241FBECFEFD8E038
S1130070DEBFCDBF21E0A0E0B1E001C01D92A230FF
S1130080B207E1F70E945C000C94AA000C940000F3
S1130090E1E8F0E080818A608083089581E08093C4
S11300A07E0080E480937C00EAE7F0E0808187684A
S11300B0808310927B0008950E9448000E944E00A5
S11300C08FEF84B917B815B8EAE7F0E0C8E7D0E0D5
S11300D0A8E8B0E0808180648083808184FFFDCFC4
S11300E0888199819370909301018093000180919C
S11300F00001909101019C01220F331F880F991F69
S1130100880F991F880F991F820F931F11969C9334
S11301108E93289AB19BFECFB19A2898B19BFECFBB
S1130120B19A299AB19BFECFB19A2998B19BFECF7F
S1130130B19A2A9AB19BFECFB19A2A98B19BFECF6D
S1130140B19A2B9AB19BFECFB19A2B98B19BFECF5B
S10B0150B19AC0CFF894FFCF6F
S9030000FC
