:100000000C9434000C9451000C9451000C94510049
:100010000C9451000C9451000C9451000C9451001C
:100020000C9451000C9451000C9451000C9451000C
:100030000C9451000C9451000C9451000C945100FC
:100040000C9462000C9451000C9451000C945100DB
:100050000C9451000C9451000C9451000C945100DC
:100060000C9451000C94510011241FBECFEFD8E026
:10007000DEBFCDBF11E0A0E0B1E0E6E5F1E002C0F7
:1000800005900D92A630B107D9F721E0A6E0B1E0C6
:1000900001C01D92A830B207E1F70E9453000C94F2
:1000A000A9000C94000084B1846284B92D9A85B5AE
:1000B000856085BDEEE6F0E0808181608083789484
:1000C00016BCFFCF1F920F920FB60F9211242F93E1
:1000D0003F938F939F938091060190910701019622
:1000E0009093070180930601209100013091010156
:1000F0002130310589F420910201309103018217EA
:100100009307F1F42A9810920701109206011092B9
:1001100001011092000114C0232B91F420910401DD
:10012000309105018217930759F42A9A109207011A
:100130001092060181E090E090930101809300010C
:100140009F918F913F912F910F900FBE0F901F9015
:060150001895F894FFCFA2
:06015600010012001B0075
:00000001FF
