S01C00004350453330315F444132435F7461736B315F70322E73726563FF
S11300000C9434000C943E000C943E000C943E007E
S11300100C943E000C943E000C943E000C943E0064
S11300200C943E000C943E000C943E000C943E0054
S11300300C943E000C943E000C943E000C943E0044
S11300400C943E000C943E000C943E000C943E0034
S11300500C943E000C943E000C943E000C943E0024
S11300600C943E000C943E0011241FBECFEFD8E048
S1130070DEBFCDBF0E9440000C9464000C940000CD
S113008084B1846284B985B1846285B987B117B8B3
S113009088B188B985B5856085BD329913C02A9821
S11300A016BC80E090E00BC0A89904C08E34910582
S11300B0DCF3F3CF0196A89A8E34910571F3A89BD3
S10F00C0F3CFF8CF2A9AE9CFF894FFCFD1
S9030000FC
