:100000000C9434000C94E6020C9451000C945100B2
:100010000C9451000C9451000C9451000C9451001C
:100020000C9451000C9451000C9451000C9451000C
:100030000C9451000C9451000C9451000C945100FC
:100040000C9451000C9451000C9451000C945100EC
:100050000C9451000C9451000C9451000C945100DC
:100060000C9451000C94510011241FBECFEFD8E026
:10007000DEBFCDBF12E0A0E0B1E0E8E4F2E102C0F3
:1000800005900D92AA38B107D9F722E0AAE8B2E0AC
:1000900001C01D92AE3BB207E1F70E9497030C949A
:1000A00022090C940000CF93C82F8A3019F48DE0F8
:1000B0000E945300E0ECF0E0808185FFFDCFC0930B
:1000C000C60080E090E0CF910895E0ECF0E0808100
:1000D0008823ECF78091C60090E008951092C50047
:1000E00087E68093C40088E18093C100E8EBF2E0EA
:1000F00088E191E0938382838AE091E09183808319
:100100000895249884B1886284B980E58CBD8DB54A
:1001100081608DBD08958EBD0DB407FEFDCF08959D
:100120008EBD0DB407FEFDCF8EB50895DF92EF9220
:10013000FF920F931F93CF93DF937B018A012A983D
:100140000E949000D82E0115110551F0E7010E0D07
:100150001F1D88810E9490008993C017D107C9F79D
:100160002A9A8D2DDF91CF911F910F91FF90EF90E3
:10017000DF90089580620E94960008950F931F9368
:10018000CF93DF931F92CDB7DEB7F894E9E6F0E0A6
:10019000808182608083E89A7894219A229A2A9AB0
:1001A00029980E9481002FEF81EE94E02150804039
:1001B0009040E1F700C000000FE30093B70241E078
:1001C00050E067EB72E080E00E94BA001092B70244
:1001D00041E050E067EB72E081E00E94BA0080EFFE
:1001E0008093B70241E050E067EB72E084E00E9448
:1001F000BA001092B70241E050E067EB72E082E093
:100200000E94BA0089E68093B70241E050E067EBB4
:1002100072E085E00E94BA008EE08093B70241E070
:1002200050E067EB72E086E00E94BA0010E710939E
:10023000B70241E050E067EB72E087E00E94BA004D
:100240000093B70241E050E067EB72E08CE10E945E
:10025000BA0084E08093B70241E050E067EB72E0BF
:100260008DE10E94BA00198340E050E060E070E048
:1002700082EE0E94BA0040E050E060E070E081EE63
:100280000E94BA0045E050E065E071E08AE00E941B
:10029000BA0045E050E060E071E080E10E94BA0001
:1002A00041E050E0BE016F5F7F4F82E00E94BA00E4
:1002B00089818160898341E050E0BE016F5F7F4F9B
:1002C00082E00E94BA000F90DF91CF911F910F91B1
:1002D00008950E94960008951F93CF93DF931F9275
:1002E000CDB7DEB7182F41E050E0BE016F5F7F4F02
:1002F00080E00E946901133071F128F4113059F047
:100300001230E9F05EC0153009F447C0D0F1163064
:1003100009F445C056C0898181FD53C08260809335
:10032000B70241E050E067EB72E080E00E94BA0063
:100330008FE39FE10197F1F700C0000042C089817F
:100340008D7F8093B70241E050E067EB72E080E080
:100350000E94BA0036C0898181608093B70241E073
:1003600050E067EB72E080E00E94BA0080E7809383
:10037000B70241E050E067EB72E087E00E94BA000C
:1003800020C089818E7F8093B70241E050E067EB07
:1003900072E080E00E94BA0014C0299812C08981DE
:1003A0008E7F8093B70241E050E067EB72E080E01F
:1003B0000E94BA00299A87E592E00197F1F700C000
:1003C00000000F90DF91CF911F91089583E00E946C
:1003D0006C01299A87E592E00197F1F700C00000CF
:1003E0000895CF92DF92EF92FF920F931F93CF93D6
:1003F000DF93CDB7DEB7A0970FB6F894DEBF0FBE80
:10040000CDBF6C016894FF24F5F8CE010196FC0184
:100410002F2D11922A95E9F7B6010E94CD05F6011C
:1004200001900020E9F731978F010C191D0984E034
:100430000E946C0140E050E060E070E082EE0E94BB
:10044000BA0040E050E060E070E081EE0E94BA0047
:10045000F092B70241E050E067EB72E087E00E9463
:10046000BA0041E050E067EB72E080E00E94690171
:100470008091B70280648093B70241E050E067EB5F
:1004800072E080E00E94BA002A9880EB0E948B0004
:10049000EFEFE00F002381F08601EE2EF12CF70143
:1004A00031967601EE0EFF1EF80181918F010E94B8
:1004B0008B000E151F05C1F780E00E948B002A9A61
:1004C000299AF0E5FA95F1F7299841E050E067EBB9
:1004D00072E087E00E9469018091B70285FD0BC040
:1004E00041E050E067EB72E087E00E946901809193
:1004F000B70285FFF5CFCE0101969F938F9386E2D9
:1005000091E09F938F930E94040641E050E067EBD7
:1005100072E080E00E9469018091B7028F7B809336
:10052000B70241E050E067EB72E080E00E94BA0061
:100530000E94E6010F900F900F900F9081E0A0961F
:100540000FB6F894DEBF0FBECDBFDF91CF911F91E4
:100550000F91FF90EF90DF90CF90089580E2EAE84E
:10056000F2E0DF011D928A95E9F741E050E067EB88
:1005700072E080E60E9469014091B702442341F095
:1005800050E04F5F5F4F6AE872E081E60E9496009C
:1005900080918A02882369F080E48093B70241E069
:1005A00050E067EB72E087E00E94BA008AE892E0D0
:1005B000089580E48093B70241E050E067EB72E079
:1005C00087E00E94BA0088E391E008951F920F929D
:1005D0000FB60F9211248F9381E08093AB028F911D
:1005E0000F900FBE0F901F901895CF93DF931F921F
:1005F000CDB7DEB78FE391E00E941A068DE691E059
:100600000E941A0641E050E0BE016F5F7F4F80E01C
:100610000E94690189811F928F9389E991E09F93DC
:100620008F930E94040641E050E0BE016F5F7F4F50
:1006300081E00E94690189811F928F9387EA91E08E
:100640009F938F930E94040641E050E0BE016F5FCC
:100650007F4F82E00E94690189811F928F9385EB11
:1006600091E09F938F930E94040641E050E0BE0109
:100670006F5F7F4F84E00E94690189811F928F9391
:1006800086EC91E09F938F930E94040641E050E036
:10069000BE016F5F7F4F85E00E94690189811F92D3
:1006A0008F9388ED91E09F938F930E94040641E021
:1006B00050E0BE016F5F7F4F86E00E946901898133
:1006C0001F928F9386EE91E09F938F930E94040672
:1006D00041E050E0BE016F5F7F4F87E00E946901FB
:1006E00089811F928F9386EF91E09F938F930E9451
:1006F000040641E050E0BE016F5F7F4F8DE10E9434
:10070000690189811F928F9384E092E09F938F9378
:100710000E9404060FB6F894DEBF0FBECDBF83E182
:1007200092E00E941A060F90DF91CF910895CF9327
:10073000DF93CDB7DEB7AA970FB6F894DEBF0FBE32
:10074000CDBFECE7F0E080818064808380818062AF
:10075000808383EE80937A000E946E000E94BE0028
:100760000E94F5020E94E60189E1E0E4F2E0DE0188
:10077000119601900D928A95E1F7CE0101960E94A3
:10078000F1010F2EF9E7CF2ED12CF02D7E012BE2B7
:10079000E20EF11C8E010F5D1F4F0F2EF9E5AF2EFB
:1007A000F2E0BF2EF02D802E912E77247394F60167
:1007B000608170E0660F771F072E000C880B990B85
:1007C0000E94D40426E636E646EE5FE30E9460050A
:1007D00020E030E040E052E40E9437040E94A3048D
:1007E0006093AC028091AC024AE050E0682D792D14
:1007F00090E00E94D405FE01B196DF01A01BB10B71
:100800008191A355BD4F8C93EE15FF05B1F78091F3
:10081000AB02882361F21092AB020E94AE029F935A
:100820008F93BF92AF920E940406FFEF29E688E102
:10083000F15020408040E1F700C000008DEA92E0D6
:100840000E94F101972D0F900F900F900F90811142
:1008500001C090E09093AA028091AA02882309F433
:10086000A6CF8FE692E00E941A06A1CF5058BB2770
:10087000AA270E944E040C9426050E94180538F001
:100880000E941F0520F039F49F3F19F426F40C94C0
:1008900015050EF4E095E7FB0C940F05E92F0E9477
:1008A000370558F3BA17620773078407950720F0D6
:1008B00079F4A6F50C9459050EF4E0950B2EBA2F99
:1008C000A02D0B01B90190010C01CA01A001112456
:1008D000FF27591B99F0593F50F4503E68F11A1602
:1008E000F040A22F232F342F4427585FF3CF469593
:1008F00037952795A795F0405395C9F77EF41F16B5
:10090000BA0B620B730B840BBAF09150A1F0FF0F7E
:10091000BB1F661F771F881FC2F70EC0BA0F621F6A
:10092000731F841F48F4879577956795B795F7955A
:100930009E3F08F0B0CF9395880F08F09927EE0FEF
:100940009795879508950E943F0588F09F5798F0E6
:10095000B92F9927B751B0F0E1F0660F771F881FC4
:10096000991F1AF0BA95C9F714C0B13091F00E94DE
:100970005905B1E008950C945905672F782F882701
:10098000B85F39F0B93FCCF3869577956795B39505
:10099000D9F73EF490958095709561957F4F8F4F74
:1009A0009F4F0895E89409C097FB3EF49095809579
:1009B000709561957F4F8F4F9F4F9923A9F0F92F25
:1009C00096E9BB279395F695879577956795B795A3
:1009D000F111F8CFFAF4BB0F11F460FF1BC06F5F89
:1009E0007F4F8F4F9F4F16C0882311F096E911C09B
:1009F000772321F09EE8872F762F05C0662371F0BC
:100A000096E8862F70E060E02AF09A95660F771FCF
:100A1000881FDAF7880F9695879597F9089597F9C3
:100A20009F6780E870E060E008959FEF80EC089594
:100A300000240A94161617061806090608950024BD
:100A40000A9412161306140605060895092E039437
:100A5000000C11F4882352F0BB0F40F4BF2B11F4AB
:100A600060FF04C06F5F7F4F8F4F9F4F089557FD0A
:100A70009058440F551F59F05F3F71F04795880F0C
:100A800097FB991F61F09F3F79F0879508951216A3
:100A900013061406551FF2CF4695F1DF08C016164F
:100AA00017061806991FF1CF869571056105089400
:100AB0000895E894BB2766277727CB0197F9089517
:100AC0000E9473050C9426050E94180538F00E94B8
:100AD0001F0520F0952311F00C940F050C941505BB
:100AE00011240C945A050E94370570F3959FC1F3A9
:100AF000950F50E0551F629FF001729FBB27F00DCC
:100B0000B11D639FAA27F00DB11DAA1F649F662720
:100B1000B00DA11D661F829F2227B00DA11D621F6F
:100B2000739FB00DA11D621F839FA00D611D221F29
:100B3000749F3327A00D611D231F849F600D211D0D
:100B4000822F762F6A2F11249F5750409AF0F1F090
:100B500088234AF0EE0FFF1FBB1F661F771F881FF9
:100B600091505040A9F79E3F510580F00C940F051D
:100B70000C945A055F3FE4F3983ED4F3869577953D
:100B80006795B795F795E7959F5FC1F7FE2B880F9F
:100B9000911D9695879597F90895FB01DC010190C9
:100BA0000D920020E1F708954532510520F44230BE
:100BB00010F00C94DF05FB011082CB010895BB27D8
:100BC0004A3031F4992322F4BDE2909581959F4FEC
:100BD0000C94EB05BB27FB015527AA27880F991F0B
:100BE000AA1FA41710F0A41B83955051B9F7A05D5C
:100BF000AA3308F0A95DA193009779F7B111B193D9
:100C00001192CB010C944108A0E0B0E0EAE0F6E0DC
:100C10000C94FB08AE014B5F5F4FFA01619171913B
:100C2000AF018091BA029091BB020E944A06E2E0B5
:100C30000C9417090F931F93CF93DF93E091BA029F
:100C4000F091BB02238121FF1BC08C01D0E0C0E0EA
:100C5000F80181918F016091BA027091BB02DB01B2
:100C60001896ED91FC911997882331F00995892BFD
:100C700079F3DFEFCFEFECCF8AE00995892B19F0FC
:100C80008FEF9FEF02C08D2F9C2FDF91CF911F918F
:100C90000F910895ABE0B0E0E0E5F6E00C94EB08CE
:100CA0006C017B018A01FC0117821682838181FF1E
:100CB000CCC1CE0101963C01F6019381F70193FD71
:100CC000859193FF81917F01882309F4BAC1853210
:100CD00039F493FD859193FF81917F01853229F449
:100CE000B60190E00E945108E7CF912C212C312CC5
:100CF000FFE1F315D8F08B3279F038F4803279F0D7
:100D00008332A1F4232D20611DC08D3261F0803328
:100D100069F4232D216016C0832D8260382EE32DC7
:100D2000E4603E2E2AC0F32DF8601DC037FC2DC0B4
:100D300020ED280F2A3040F08E32B9F436FC81C104
:100D4000232D2064322E19C036FE06C08AE0989EFC
:100D5000200D1124922E11C0EAE02E9E200D1124A8
:100D6000222EF32DF0623F2E08C08C3621F4832D05
:100D70008068382E02C0883641F4F70193FD8591D2
:100D800093FF81917F018111B3CF982F9F7D95545F
:100D9000933028F40C5F1F4F9FE399830DC0833677
:100DA00031F0833771F0833509F059C021C0F80163
:100DB000808189830E5F1F4F88248394912C530177
:100DC00013C02801F2E04F0E511CF801A080B18041
:100DD00036FE03C0692D70E002C06FEF7FEFC501E2
:100DE0000E9436084C018201F32DFF773F2E16C07A
:100DF000280122E0420E511CF801A080B18036FE8D
:100E000003C0692D70E002C06FEF7FEFC5010E9443
:100E10002B084C01F32DF0683F2E820133FC1BC0E0
:100E2000822D90E088169906B0F4B60180E290E039
:100E30000E9451082A94F4CFF50137FC859137FEC2
:100E400081915F01B60190E00E94510821102A941F
:100E500021E0821A91088114910471F7E8C0843668
:100E600011F0893641F5F80137FE07C060817181C4
:100E7000828193810C5F1F4F08C060817181072EB2
:100E8000000C880B990B0E5F1F4FF32DFF763F2E42
:100E900097FF09C090958095709561957F4F8F4F12
:100EA0009F4FF0683F2E2AE030E0A3010E948D089A
:100EB000882E861845C0853731F4232D2F7EB22E1B
:100EC0002AE030E025C0932D997FB92E8F36C1F0EE
:100ED00018F4883579F0B5C0803719F0883721F0DB
:100EE000B0C0E92FE061BE2EB4FE0DC0FB2DF46052
:100EF000BF2E09C034FE0AC0292F2660B22E06C0BC
:100F000028E030E005C020E130E002C020E132E01E
:100F1000F801B7FE07C060817181828193810C5F07
:100F20001F4F06C06081718180E090E00E5F1F4F0F
:100F3000A3010E948D08882E8618FB2DFF773F2E77
:100F400036FE0DC0232D2E7FA22E891458F434FEB8
:100F50000BC032FC09C0832D8E7EA82E05C0B82C94
:100F6000A32C03C0B82C01C0B92CA4FE0FC0FE01F5
:100F7000E80DF11D8081803321F49A2D997EA92EF0
:100F800009C0A2FE06C0B394B39404C08A2D86782B
:100F900009F0B394A3FC11C0A0FE06C0B21488F4FB
:100FA000280C922C9B180EC0B21460F4B60180E29B
:100FB00090E00E945108B394F7CFB21418F42B18A4
:100FC00002C0982C212CA4FE10C0B60180E390E052
:100FD0000E945108A2FE17C0A1FC03C088E790E060
:100FE00002C088E590E0B6010CC08A2D867859F0E1
:100FF000A1FE02C08BE201C080E2A7FC8DE2B60137
:1010000090E00E945108891438F4B60180E390E022
:101010000E9451089A94F7CF8A94F301E80DF11DCC
:101020008081B60190E00E9451088110F5CF222006
:1010300009F442CEB60180E290E00E9451082A9461
:10104000F6CFF6018681978102C08FEF9FEF2B9636
:10105000E2E10C940709FC01059061507040011019
:10106000D8F7809590958E0F9F1F0895FC016150D1
:10107000704001900110D8F7809590958E0F9F1FBA
:101080000895DC01FC01672F71917723E1F7329716
:1010900004C07C916D9370836291AE17BF07C8F353
:1010A00008950F931F93CF93DF93FB01238121FDBD
:1010B00003C08FEF9FEF2CC022FF16C046815781DF
:1010C000248135814217530744F4A081B1819D01E9
:1010D0002F5F3F4F318320838C93268137812F5F91
:1010E0003F4F3783268314C08B01EC01FB01008442
:1010F000F185E02D0995892BE1F6D80116968D91A1
:101100009C911797019617969C938E931697CE01F4
:10111000DF91CF911F910F910895FA01AA272830EE
:1011200051F1203181F1E8946F936E7F6E5F7F4FB4
:101130008F4F9F4FAF4FB1E03ED0B4E03CD0670F30
:10114000781F891F9A1FA11D680F791F8A1F911D83
:10115000A11D6A0F711D811D911DA11D20D009F4D3
:1011600068943F912AE0269F11243019305D319315
:10117000DEF6CF010895462F4770405D4193B3E0FE
:101180000FD0C9F7F6CF462F4F70405D4A3318F0A5
:10119000495D31FD4052419302D0A9F7EACFB4E056
:1011A000A6959795879577956795BA95C9F700970E
:1011B0006105710508959B01AC010A2E06945795AF
:1011C000479537952795BA95C9F7620F731F841F06
:1011D000951FA01D08952F923F924F925F926F929C
:1011E0007F928F929F92AF92BF92CF92DF92EF92B7
:1011F000FF920F931F93CF93DF93CDB7DEB7CA1B38
:10120000DB0B0FB6F894DEBF0FBECDBF09942A8862
:10121000398848885F846E847D848C849B84AA840A
:10122000B984C884DF80EE80FD800C811B81AA8197
:10123000B981CE0FD11D0FB6F894DEBF0FBECDBF62
:08124000ED010895F894FFCFC1
:10124800E7E7E7E7E7E7E7E7E7E70000000100008F
:10125800000000006500000000000002000000001F
:101268005300000000004D65737361676520736566
:101278006E743A2025730A006661696C65640053D0
:1012880074617274757020737563636573736675C2
:101298006C0A0A206E524632344C30312B20636F70
:1012A8006E666967757265642061733A002D2D2D2D
:1012B8002D2D2D2D2D2D2D2D2D2D2D2D2D2D2D2D56
:1012C8002D2D2D2D2D2D2D2D2D2D2D2D2D2D2D2D46
:1012D8002D2D2D2D2D2D2D2D00434F4E46494709DF
:1012E80009307825780A00454E5F414109090930DF
:1012F8007825780A00454E5F5258414444520909FE
:10130800307825780A0053455455505F5245545259
:101318000909307825780A0052465F4348090909C7
:10132800307825780A0052465F53455455500909CC
:10133800307825780A0053544154555309093078B8
:1013480025780A0046454154555245090930782503
:10135800780A002D2D2D2D2D2D2D2D2D2D2D2D2DBA
:101368002D2D2D2D2D2D2D2D2D2D2D2D2D2D2D2DA5
:101378002D2D2D2D2D2D2D2D2D2D2D2D2D2D0A00E5
:1013880043687269732C206D7920626167656C739C
:1013980020617265207765740052656365697665BA
:1013A80064206D6573736167653A2025730A004D83
:1013B8006573736167652073656E74207375636305
:0A13C80065737366756C6C790000A4
:00000001FF
